{
  "address": "0x8A791620dd6260079BF849Dc5567aDC3F2FdC318",
  "abi": [
    {
      "inputs": [
        {
          "internalType": "contract iOVM_ERC20",
          "name": "_l1ERC20",
          "type": "address"
        },
        {
          "internalType": "address",
          "name": "_l2DepositedERC20",
          "type": "address"
        },
        {
          "internalType": "address",
          "name": "_l1messenger",
          "type": "address"
        }
      ],
      "stateMutability": "nonpayable",
      "type": "constructor"
    },
    {
      "anonymous": false,
      "inputs": [
        {
          "indexed": true,
          "internalType": "address",
          "name": "_from",
          "type": "address"
        },
        {
          "indexed": false,
          "internalType": "address",
          "name": "_to",
          "type": "address"
        },
        {
          "indexed": false,
          "internalType": "uint256",
          "name": "_amount",
          "type": "uint256"
        }
      ],
      "name": "DepositInitiated",
      "type": "event"
    },
    {
      "anonymous": false,
      "inputs": [
        {
          "indexed": true,
          "internalType": "address",
          "name": "_to",
          "type": "address"
        },
        {
          "indexed": false,
          "internalType": "uint256",
          "name": "_amount",
          "type": "uint256"
        }
      ],
      "name": "WithdrawalFinalized",
      "type": "event"
    },
    {
      "inputs": [],
      "name": "DEFAULT_FINALIZE_DEPOSIT_L2_GAS",
      "outputs": [
        {
          "internalType": "uint32",
          "name": "",
          "type": "uint32"
        }
      ],
      "stateMutability": "view",
      "type": "function"
    },
    {
      "inputs": [
        {
          "internalType": "uint256",
          "name": "_amount",
          "type": "uint256"
        }
      ],
      "name": "deposit",
      "outputs": [],
      "stateMutability": "nonpayable",
      "type": "function"
    },
    {
      "inputs": [
        {
          "internalType": "address",
          "name": "_to",
          "type": "address"
        },
        {
          "internalType": "uint256",
          "name": "_amount",
          "type": "uint256"
        }
      ],
      "name": "depositTo",
      "outputs": [],
      "stateMutability": "nonpayable",
      "type": "function"
    },
    {
      "inputs": [
        {
          "internalType": "address",
          "name": "_to",
          "type": "address"
        },
        {
          "internalType": "uint256",
          "name": "_amount",
          "type": "uint256"
        }
      ],
      "name": "finalizeWithdrawal",
      "outputs": [],
      "stateMutability": "nonpayable",
      "type": "function"
    },
    {
      "inputs": [],
      "name": "getFinalizeDepositL2Gas",
      "outputs": [
        {
          "internalType": "uint32",
          "name": "",
          "type": "uint32"
        }
      ],
      "stateMutability": "view",
      "type": "function"
    },
    {
      "inputs": [],
      "name": "l1ERC20",
      "outputs": [
        {
          "internalType": "contract iOVM_ERC20",
          "name": "",
          "type": "address"
        }
      ],
      "stateMutability": "view",
      "type": "function"
    },
    {
      "inputs": [],
      "name": "l2DepositedToken",
      "outputs": [
        {
          "internalType": "address",
          "name": "",
          "type": "address"
        }
      ],
      "stateMutability": "view",
      "type": "function"
    },
    {
      "inputs": [],
      "name": "messenger",
      "outputs": [
        {
          "internalType": "address",
          "name": "",
          "type": "address"
        }
      ],
      "stateMutability": "view",
      "type": "function"
    }
  ],
  "transactionHash": "0x0f9e9978df3c64714bfdadcc2325a3e8092c31055918f1f893c8527e0e628474",
  "args": [
    "0x0165878A594ca255338adfa4d48449f69242Eb8F",
    "0x2279B7A0a67DB372996a5FaB50D91eAA73d2eBe6",
    "0x6418E5Da52A3d7543d393ADD3Fa98B0795d27736"
  ],
  "solcInputHash": "0f563c74dfc44f7aa33e02a3f01e2f82",
  "bytecode": "0x608060405262124f80600160146101000a81548163ffffffff021916908363ffffffff1602179055503480156200003557600080fd5b5060405162000d6338038062000d6383398181016040528101906200005b919062000160565b828282818180806000806101000a81548173ffffffffffffffffffffffffffffffffffffffff021916908373ffffffffffffffffffffffffffffffffffffffff1602179055505081600160006101000a81548173ffffffffffffffffffffffffffffffffffffffff021916908373ffffffffffffffffffffffffffffffffffffffff160217905550505082600260006101000a81548173ffffffffffffffffffffffffffffffffffffffff021916908373ffffffffffffffffffffffffffffffffffffffff16021790555050505050505062000232565b6000815190506200014381620001fe565b92915050565b6000815190506200015a8162000218565b92915050565b6000806000606084860312156200017657600080fd5b6000620001868682870162000149565b9350506020620001998682870162000132565b9250506040620001ac8682870162000132565b9150509250925092565b6000620001c382620001de565b9050919050565b6000620001d782620001b6565b9050919050565b600073ffffffffffffffffffffffffffffffffffffffff82169050919050565b6200020981620001b6565b81146200021557600080fd5b50565b6200022381620001ca565b81146200022f57600080fd5b50565b610b2180620002426000396000f3fe608060405234801561001057600080fd5b50600436106100885760003560e01c80639423169b1161005b5780639423169b14610105578063b6b55f2514610123578063f4f7b41a1461013f578063ffaad6a51461015b57610088565b80630439f40b1461008d5780631273a090146100ab57806332b5e32e146100c95780633cb747bf146100e7575b600080fd5b610095610177565b6040516100a29190610900565b60405180910390f35b6100b361019d565b6040516100c091906109b1565b60405180910390f35b6100d16101b7565b6040516100de919061097b565b60405180910390f35b6100ef6101dd565b6040516100fc9190610900565b60405180910390f35b61010d610201565b60405161011a91906109b1565b60405180910390f35b61013d6004803603810190610138919061089b565b610217565b005b61015960048036038101906101549190610836565b610225565b005b61017560048036038101906101709190610836565b61043b565b005b600160009054906101000a900473ffffffffffffffffffffffffffffffffffffffff1681565b6000600160149054906101000a900463ffffffff16905090565b600260009054906101000a900473ffffffffffffffffffffffffffffffffffffffff1681565b60008054906101000a900473ffffffffffffffffffffffffffffffffffffffff1681565b600160149054906101000a900463ffffffff1681565b61022233338361044a565b50565b600160009054906101000a900473ffffffffffffffffffffffffffffffffffffffff1661025061055b565b73ffffffffffffffffffffffffffffffffffffffff163373ffffffffffffffffffffffffffffffffffffffff16146102d3576040517f08c379a000000000000000000000000000000000000000000000000000000000815260040180806020018281038252602e815260200180610a8e602e913960400191505060405180910390fd5b8073ffffffffffffffffffffffffffffffffffffffff166102f261055b565b73ffffffffffffffffffffffffffffffffffffffff16636e296e456040518163ffffffff1660e01b815260040160206040518083038186803b15801561033757600080fd5b505afa15801561034b573d6000803e3d6000fd5b505050506040513d602081101561036157600080fd5b810190808051906020019092919050505073ffffffffffffffffffffffffffffffffffffffff16146103de576040517f08c379a0000000000000000000000000000000000000000000000000000000008152600401808060200182810382526030815260200180610abc6030913960400191505060405180910390fd5b6103e88383610584565b8273ffffffffffffffffffffffffffffffffffffffff167f9e5c4f9f4e46b8629d3dda85f43a69194f50254404a72dc62b9e932d9c94eda88360405161042e9190610996565b60405180910390a2505050565b61044633838361044a565b5050565b610455838383610638565b6000638d6e9a5b60e01b8383604051602401610472929190610952565b604051602081830303815290604052907bffffffffffffffffffffffffffffffffffffffffffffffffffffffff19166020820180517bffffffffffffffffffffffffffffffffffffffffffffffffffffffff83818316178352505050509050610505600160009054906101000a900473ffffffffffffffffffffffffffffffffffffffff168261050061019d565b6106ef565b8373ffffffffffffffffffffffffffffffffffffffff167ff531653a5819e21265de50358610d55dbe6594c61605b209dfa4280d277938c1848460405161054d929190610952565b60405180910390a250505050565b60008060009054906101000a900473ffffffffffffffffffffffffffffffffffffffff16905090565b600260009054906101000a900473ffffffffffffffffffffffffffffffffffffffff1673ffffffffffffffffffffffffffffffffffffffff1663a9059cbb83836040518363ffffffff1660e01b81526004016105e1929190610952565b602060405180830381600087803b1580156105fb57600080fd5b505af115801561060f573d6000803e3d6000fd5b505050506040513d601f19601f820116820180604052508101906106339190610872565b505050565b600260009054906101000a900473ffffffffffffffffffffffffffffffffffffffff1673ffffffffffffffffffffffffffffffffffffffff166323b872dd8430846040518463ffffffff1660e01b81526004016106979392919061091b565b602060405180830381600087803b1580156106b157600080fd5b505af11580156106c5573d6000803e3d6000fd5b505050506040513d601f19601f820116820180604052508101906106e99190610872565b50505050565b6106f761055b565b73ffffffffffffffffffffffffffffffffffffffff16633dbb202b8484846040518463ffffffff1660e01b8152600401808473ffffffffffffffffffffffffffffffffffffffff168152602001806020018363ffffffff168152602001828103825284818151815260200191508051906020019080838360005b8381101561078c578082015181840152602081019050610771565b50505050905090810190601f1680156107b95780820380516001836020036101000a031916815260200191505b50945050505050600060405180830381600087803b1580156107da57600080fd5b505af11580156107ee573d6000803e3d6000fd5b50505050505050565b60008135905061080681610a48565b92915050565b60008151905061081b81610a5f565b92915050565b60008135905061083081610a76565b92915050565b6000806040838503121561084957600080fd5b6000610857858286016107f7565b925050602061086885828601610821565b9150509250929050565b60006020828403121561088457600080fd5b60006108928482850161080c565b91505092915050565b6000602082840312156108ad57600080fd5b60006108bb84828501610821565b91505092915050565b6108cd816109cc565b82525050565b6108dc81610a24565b82525050565b6108eb81610a0a565b82525050565b6108fa81610a14565b82525050565b600060208201905061091560008301846108c4565b92915050565b600060608201905061093060008301866108c4565b61093d60208301856108c4565b61094a60408301846108e2565b949350505050565b600060408201905061096760008301856108c4565b61097460208301846108e2565b9392505050565b600060208201905061099060008301846108d3565b92915050565b60006020820190506109ab60008301846108e2565b92915050565b60006020820190506109c660008301846108f1565b92915050565b60006109d7826109ea565b9050919050565b60008115159050919050565b600073ffffffffffffffffffffffffffffffffffffffff82169050919050565b6000819050919050565b600063ffffffff82169050919050565b6000610a2f82610a36565b9050919050565b6000610a41826109ea565b9050919050565b610a51816109cc565b8114610a5c57600080fd5b50565b610a68816109de565b8114610a7357600080fd5b50565b610a7f81610a0a565b8114610a8a57600080fd5b5056fe4f564d5f58434841494e3a206d657373656e67657220636f6e747261637420756e61757468656e746963617465644f564d5f58434841494e3a2077726f6e672073656e646572206f662063726f73732d646f6d61696e206d657373616765a2646970667358221220670d4c99ba8391ff01054cd3ac0a6e3c8afdf6ef429b5d5b4e5954d0cf228eac64736f6c63430007060033",
  "devdoc": {
    "kind": "dev",
    "methods": {
      "deposit(uint256)": {
        "details": "deposit an amount of the ERC20 to the caller's balance on L2",
        "params": {
          "_amount": "Amount of the ERC20 to deposit"
        }
      },
      "depositTo(address,uint256)": {
        "details": "deposit an amount of ERC20 to a recipients's balance on L2",
        "params": {
          "_amount": "Amount of the ERC20 to deposit",
          "_to": "L2 address to credit the withdrawal to"
        }
      },
      "finalizeWithdrawal(address,uint256)": {
        "details": "Complete a withdrawal from L2 to L1, and credit funds to the recipient's balance of the  L1 ERC20 token.  This call will fail if the initialized withdrawal from L2 has not been finalized. ",
        "params": {
          "_amount": "Amount of the ERC20 to withdraw",
          "_to": "L1 address to credit the withdrawal to"
        }
      },
      "getFinalizeDepositL2Gas()": {
        "details": "Overridable getter for the L2 gas limit, in the case it may be dynamic, and the above public constant does not suffice."
      }
    },
    "version": 1
  },
  "userdoc": {
    "kind": "user",
    "methods": {},
    "version": 1
  },
  "storageLayout": {
    "storage": [
      {
        "astId": 721,
        "contract": "contracts/L1ERC20Gateway.sol:L1ERC20Gateway",
        "label": "messenger",
        "offset": 0,
        "slot": "0",
        "type": "t_address"
      },
      {
        "astId": 15,
        "contract": "contracts/L1ERC20Gateway.sol:L1ERC20Gateway",
        "label": "l2DepositedToken",
        "offset": 0,
        "slot": "1",
        "type": "t_address"
      },
      {
        "astId": 34,
        "contract": "contracts/L1ERC20Gateway.sol:L1ERC20Gateway",
        "label": "DEFAULT_FINALIZE_DEPOSIT_L2_GAS",
        "offset": 20,
        "slot": "1",
        "type": "t_uint32"
      },
      {
        "astId": 400,
        "contract": "contracts/L1ERC20Gateway.sol:L1ERC20Gateway",
        "label": "l1ERC20",
        "offset": 0,
        "slot": "2",
        "type": "t_contract(iOVM_ERC20)714"
      }
    ],
    "types": {
      "t_address": {
        "encoding": "inplace",
        "label": "address",
        "numberOfBytes": "20"
      },
      "t_contract(iOVM_ERC20)714": {
        "encoding": "inplace",
        "label": "contract iOVM_ERC20",
        "numberOfBytes": "20"
      },
      "t_uint32": {
        "encoding": "inplace",
        "label": "uint32",
        "numberOfBytes": "4"
      }
    }
  }
}